:03000000021218D1
:0C121800787FE4F6D8FD75814002125F7B
:1010D8002573B5A5BCDB3A2025640000B0D7CCEC5D
:1010E80000D2B9BCE400C6F0B2BDBCDB3A2025642E
:1010F80020202020200000B5B1C7B0D0D0B3CC3A12
:1011080020302E3030202000D0D0B3CCD7DCBCDB50
:101118003A20302E3030202000B5B1C7B0D0D0B33F
:10112800CC3A2025642E25303264202000D0D0B35C
:10113800CCD7DCBCDB3A2025642E25303264202055
:10114800002573B5A5BCDB3A20256400C6F0B2BD06
:10115800BCDB3A20256420202020202020202020CD
:10116800002573B5A5BCDB3A20256420202000D7D4
:10117800DCD0D0B3CC3A2025642E25303264202030
:011188000066
:1012DC00112C0000000000000000000000000000C5
:1012EC00000000C10AC189022A0000022800000285
:1012FC00240000043D040201050127000222000025
:03130C00012600B7
:03000B00020FF7EA
:100FF700C0E0C0F0C083C082C0D075D000C000C0C0
:1010070006C007758AF0758CD8300A0EE53F25258E
:10101700F525E43524F5240210C70529E5297002D2
:101027000528C394F4E52894014011A209E4332468
:101037003DF8E62525F525E43524F524052BE52B94
:10104700AE2A7002052A14FFEE7075EF14B408007B
:10105700506E90106775F003A4C58325F0C58373A0
:1010670002107F02108502108B02109502109B025E
:1010770010A50210AF0210B9D2B4C2B7800AD2B419
:10108700D2B78004C2B4D2B7C2B6C2B58032C2B436
:10109700D2B78004C2B4C2B7D2B6C2B58022C2B436
:1010A700C2B7D2B6D2B58018C2B4C2B7C2B6D2B52B
:1010B700800ED2B4C2B7C2B6D2B5752A00752B005E
:1010C700D007D006D000D0D0D082D083D0F0D0E0E7
:0110D70032E6
:100800001213AF1213C5750BFF750C10750DD87B45
:10081000FF3009067A1079E480047A1079E98B0EAA
:100820008A0F8910A209E433243DF8E6751100F51A
:10083000127B007A00792C120BDE7B007A00792C77
:10084000E4FDFF121310750BFF750C10750DEE759E
:100850000E0085400F7B007A00792C120BDE7B00A6
:100860007A00792CE4FD7F011213107BFF7A107956
:10087000FFE4FD7F021213107BFF7A117910E4FD73
:100880007F03121310E522600302090B308C7C7584
:100890002220750BFF750C11750D21AE28AF29FCB8
:1008A0007D64120F0B8E0E8F0FAE28AF297C007D5A
:1008B00064120F0B8C108D117B007A00792C120BB7
:1008C000DE7B007A00792CE4FD7F02121310750B99
:1008D000FF750C11750D35AE24AF257C007D6412BB
:1008E0000F0B8E0E8F0FAE24AF257C007D64120F90
:1008F0000B8C108D117B007A00792C120BDE7B00A3
:100900007A00792CE4FD7F031213101211898F27CE
:10091000E5277003020B6CE5236003020B6C752363
:10092000C8E527B43D05B20A020B6CE527644170A7
:1009300021208C1EB209750BFF750C11750D497BBA
:10094000FF3009077A1079E4020A157A1079E90272
:100950000A15E527643970130540750BFF750C11F6
:10096000750D54F50E85400FFB8020E52764387027
:100970002EE540D3940140021540750BFF750C1114
:10098000750D54750E0085400F7B007A00792C128E
:100990000BDE7B007A00792CE4FD7F01020AC4E5BE
:1009A0002764367045A20933FF243DF806750BFF16
:1009B000750C11750D697BFF3009067A1079E4809A
:1009C000047A1079E98B0E8A0F8910743D2FF8E6AE
:1009D000751100F5127B007A00792C120BDE7B007A
:1009E0007A00792CE4FDFF020AC4E5276435704DD6
:1009F000A20933243DF8E6D39401400116750BFF9C
:100A0000750C11750D697BFF3009067A1079E48049
:100A1000047A1079E98B0E8A0F8910A209E4332435
:100A20003DF8E6751100F5127B007A00792C120B67
:100A3000DE7B007A00792CE4FDFF020AC4E527641E
:100A40002F6003020ACA208C03020ACAC28C750BEB
:100A5000FF750C11750D77AE28AF29FC7D64120F60
:100A60000B8E0E8F0FAE28AF297C007D64120F0B0A
:100A70008C108D117B007A00792C120BDE7B007AB2
:100A800000792CE4FD7F02121310750BFF750C1119
:100A9000750D35AE24AF257C007D64120F0B8E0ED4
:100AA0008F0FAE24AF257C007D64120F0B8C108D50
:100AB000117B007A00792C120BDE7B007A00792CF6
:100AC000E4FD7F03121310020B6CE52764446003FE
:100AD000020B6C308C03020B6CF528F529E5407590
:100AE000F064A485F024F525C20A750BFF750C117E
:100AF000750D21AE28AF297C007D64120F0B8E0E80
:100B00008F0FAE28AF297C007D64120F0B8C108DE7
:100B1000117B007A00792C120BDE7B007A00792C95
:100B2000E4FD7F02121310750BFF750C11750D3566
:100B3000AE24AF257C007D64120F0B8E0E8F0FAE9E
:100B400024AF257C007D64120F0B8C108D117B006F
:100B50007A00792C120BDE7B007A00792CE4FD7F81
:100B600003121310758AF0758CD8D28CE5226002BE
:100B70001522E523600215237F017E0012139802DF
:020B80000885E6
:1013DA00C2A0D2A1D2A27580FFE58020E7FBC2A2FB
:0113EA0022E0
:10136400C2A0C2A1C2A28F80D2A27F057E001213A6
:0A13740098C2A27F017E00021398C8
:10137E00D2A0C2A1C2A28F80D2A27F057E0012137C
:0A138E0098C2A27F017E00021398AE
:1012A4008F0C8D0DE50C7006E50D2480801FE50C78
:1012B400B40106E50D24908014E50CB40206E50D96
:1012C40024888009E50CB40308E50D2498FF121363
:0812D400647F017E0002139803
:1013AF00C2A17F301213647F0C1213647F011213DA
:0613BF00647F06021364C6
:0A13EB008B1C1212A4AF1C02137E2B
:061310008B088A09890A1E
:101316001212A4E4F50BAB08AA09A90A850B82757B
:101326008300120EDEFF600EE50BC3941050071209
:06133600137E050B80E0B0
:01133C00228E
:1011890075907FE59020E0037F4122E59020E103FF
:101199007F3922E59020E2037F3822E59020E3039E
:1011A9007F37227590BFE59020E0037F4222E590CA
:1011B90020E1037F3622E59020E2037F3522E59086
:1011C90020E3037F34227590DFE59020E0037F431D
:1011D90022E59020E1037F3322E59020E2037F326C
:1011E90022E59020E3037F31227590EFE59020E01E
:1011F900037F4422E59020E1037F3D22E59020E230
:0F120900037F3022E59020E3037F2F227F002216
:101398007D7D7C00ED1D70011C144C70F7EF1F70F3
:0613A800011E144E70EA64
:0113AE00221C
:1013C5005389F0438901758AF0758CD8C28DC28C1A
:0513D500D2A9D2AF22F5
:10122400020800E493A3F8E493A34003F68001F2D8
:1012340008DFF48029E493A3F85407240CC8C333CB
:10124400C4540F4420C8834004F456800146F6DF9A
:10125400E4800B01020408102040809012DCE47E3C
:10126400019360BCA3FF543F30E509541FFEE4938F
:10127400A360010ECF54C025E060A840B8E493A356
:10128400FAE493A3F8E493A3C8C582C8CAC583CA81
:10129400F0A3C8C582C8CAC583CADFE9DEE780BE39
:01130F0000DD
:100EDE00BB010CE58229F582E5833AF583E02250C9
:100EEE0006E92582F8E622BBFE06E92582F8E22213
:0D0EFE00E58229F582E5833AF583E493222D
:100F0B00C2D5EC30E709B2D5E4C39DFDE49CFCEE01
:100F1B0030E715B2D5E4C39FFFE49EFE120F6CC3FE
:100F2B00E49DFDE49CFC8003120F6C30D507C3E4F9
:060F3B009FFFE49EFE2270
:100B8200E517240BF8E60517227808300702780BE0
:100B9200E475F001120FC1020F412000EB7F2ED24B
:100BA200008018EF540F2490D43440D4FF30040B4B
:100BB200EF24BFB41A0050032461FFE51860021548
:100BC20018051BE51B7002051A30070D7808E4753D
:100BD200F001120FC1EF020F5A02133D7403D20744
:100BE2008003E4C207F5178B088A09890AE4F5181D
:100BF200F51AF51BE51860077F20120BBD80F5750D
:100C020019FFC201C200C202C203C205C206C20863
:100C1200120B8BFF700D3007057F00120BCEAF1B3E
:100C2200AE1A22B4255FC2D5C204120B8BFF24D0A8
:100C3200B40A00501A75F00A781830D50508B6FFC4
:100C42000106C6A426F620D5047002D20380D92458
:100C5200CFB41A00EF5004C2E5D204020DCED20185
:100C620080C6D20080C0D20280BCD2D580BAD20562
:100C720080B47F20120BBD2002077401B51800401A
:100C8200F1120B82FF120BBD020BF6D208D20680C4
:100C920095120B82FB120B82FA120B82F94A4B70ED
:100CA20006799F7A0E7BFF20022EE518602A7E00CD
:100CB2008E82758300120EDE60060EEE651970F0EC
:100CC200C2D5EBC0E0EAC0E0E9C0E0EE120E15D0FA
:100CD200E0F9D0E0FAD0E0FB120F41FF60AAEBC0CE
:100CE200E0EAC0E0E9C0E0120BBDD0E02401F9D097
:100CF200E03400FAD0E0FBE5190460DCD519D980B4
:100D0200877BFF7A0E7911D202809C79108002795A
:100D120008C206C2088008D2D5790A8004790AC2BC
:100D2200D5E519047002F519E4FAFDFEFF120B82F3
:100D3200FC7B08200113120B82FD7B1030000A128B
:100D42000B82FE120B82FF7B20EC3382D592D550B0
:100D520013C3E43000069FFFE49EFEE42001039DDE
:100D6200FDE49CFCE4CBF8C201EC700CCFCECDCC00
:100D7200E824F8F870F38017C3EF33FFEE33FEED8B
:100D820033FDEC33FCEB33FB994002FB0FD8E9EB6C
:100D9200300105F8D0E0C448B201C0E00AEC4D4E83
:100DA2004F78207B0070C2EAB5190040BCC0E01247
:100DB2000E17D0F0D0E0200104C4C0E0C4B201C0DC
:100DC200F0120BA6D0F0D5F0EB020BF6120FD10CFD
:100DD20093530D0D580C644C0C60420D114F0D19BC
:0F0DE200440D19490C79430D1F550D03460D03A0
:100DF100450D03470EBF500C682D0C6C2E0C8F2B2C
:100E01000C70230C8D200EA82A0C284800000C879A
:100E11003F3F3F00790AA2D5200314300509B910DC
:100E2100020404B9080104A2D520060250010420DD
:100E310002689202B518005034C0E07F20300319D7
:100E41007F30A20272067205500F120E6EC202C2EC
:100E510006C205C2087F30800F300503E9C0E012E9
:100E61000BBD300503D0E0F9D0E0B518CC30051743
:100E71007F30B9100C120BBD7F583004077F78808A
:100E810003B90803120BBD3002057F2D020BBD7F94
:100E9100202008F87F2B2006F322920280CF286EB3
:100EA100756C6C2900D201120B823001F8C20178F5
:100EB1001830D50108F6020C282D50434958120B61
:100EC100822403B405004001E4900EBA93120BAEE4
:0D0ED100743A120BAED203751804020D0D19
:100F4100BB010689828A83E0225002E722BBFE02AE
:090F5100E32289828A83E49322E1
:100F5A00BB010689828A83F0225002F722BBFE0176
:020F6A00F32270
:100F6C00BC000BBE0029EF8DF084FFADF022E4CC69
:100F7C00F875F008EF2FFFEE33FEEC33FCEE9DEC32
:100F8C00984005FCEE9DFE0FD5F0E9E4CEFD22ED78
:100F9C00F8F5F0EE8420D21CFEADF075F008EF2FC2
:100FAC00FFED33FD4007985006D5F0F222C398FDB3
:050FBC000FD5F0EA2250
:100FC100FAE6FB0808E6F925F0F618E6CA3AF62231
:100FD100D083D082F8E4937012740193700DA3A3AF
:100FE10093F8740193F5828883E4737402936860C3
:060FF100EFA3A3A380DFC3
:10133D00EFB40A07740D121348740A309811A89966
:10134D00B8130CC2983098FDA899C298B811F63010
:07135D0099FDC299F59922E8
:00000001FF
